{
  "_format": "hh-sol-artifact-1",
  "contractName": "SilhouettePunks",
  "sourceName": "contracts/SilhouettePunks.sol",
  "abi": [
    {
      "inputs": [
        {
          "internalType": "string",
          "name": "baseURI",
          "type": "string"
        }
      ],
      "stateMutability": "nonpayable",
      "type": "constructor"
    },
    {
      "anonymous": false,
      "inputs": [
        {
          "indexed": true,
          "internalType": "address",
          "name": "owner",
          "type": "address"
        },
        {
          "indexed": true,
          "internalType": "address",
          "name": "approved",
          "type": "address"
        },
        {
          "indexed": true,
          "internalType": "uint256",
          "name": "tokenId",
          "type": "uint256"
        }
      ],
      "name": "Approval",
      "type": "event"
    },
    {
      "anonymous": false,
      "inputs": [
        {
          "indexed": true,
          "internalType": "address",
          "name": "owner",
          "type": "address"
        },
        {
          "indexed": true,
          "internalType": "address",
          "name": "operator",
          "type": "address"
        },
        {
          "indexed": false,
          "internalType": "bool",
          "name": "approved",
          "type": "bool"
        }
      ],
      "name": "ApprovalForAll",
      "type": "event"
    },
    {
      "anonymous": false,
      "inputs": [
        {
          "indexed": true,
          "internalType": "address",
          "name": "previousOwner",
          "type": "address"
        },
        {
          "indexed": true,
          "internalType": "address",
          "name": "newOwner",
          "type": "address"
        }
      ],
      "name": "OwnershipTransferred",
      "type": "event"
    },
    {
      "anonymous": false,
      "inputs": [
        {
          "indexed": true,
          "internalType": "address",
          "name": "from",
          "type": "address"
        },
        {
          "indexed": true,
          "internalType": "address",
          "name": "to",
          "type": "address"
        },
        {
          "indexed": true,
          "internalType": "uint256",
          "name": "tokenId",
          "type": "uint256"
        }
      ],
      "name": "Transfer",
      "type": "event"
    },
    {
      "inputs": [
        {
          "internalType": "address",
          "name": "to",
          "type": "address"
        },
        {
          "internalType": "uint256",
          "name": "tokenId",
          "type": "uint256"
        }
      ],
      "name": "approve",
      "outputs": [],
      "stateMutability": "nonpayable",
      "type": "function"
    },
    {
      "inputs": [
        {
          "internalType": "address",
          "name": "owner",
          "type": "address"
        }
      ],
      "name": "balanceOf",
      "outputs": [
        {
          "internalType": "uint256",
          "name": "",
          "type": "uint256"
        }
      ],
      "stateMutability": "view",
      "type": "function"
    },
    {
      "inputs": [
        {
          "internalType": "uint256",
          "name": "tokenId",
          "type": "uint256"
        }
      ],
      "name": "getApproved",
      "outputs": [
        {
          "internalType": "address",
          "name": "",
          "type": "address"
        }
      ],
      "stateMutability": "view",
      "type": "function"
    },
    {
      "inputs": [
        {
          "internalType": "address",
          "name": "owner",
          "type": "address"
        },
        {
          "internalType": "address",
          "name": "operator",
          "type": "address"
        }
      ],
      "name": "isApprovedForAll",
      "outputs": [
        {
          "internalType": "bool",
          "name": "",
          "type": "bool"
        }
      ],
      "stateMutability": "view",
      "type": "function"
    },
    {
      "inputs": [
        {
          "internalType": "uint256",
          "name": "tokenID",
          "type": "uint256"
        }
      ],
      "name": "mint",
      "outputs": [],
      "stateMutability": "payable",
      "type": "function"
    },
    {
      "inputs": [],
      "name": "name",
      "outputs": [
        {
          "internalType": "string",
          "name": "",
          "type": "string"
        }
      ],
      "stateMutability": "view",
      "type": "function"
    },
    {
      "inputs": [],
      "name": "owner",
      "outputs": [
        {
          "internalType": "address",
          "name": "",
          "type": "address"
        }
      ],
      "stateMutability": "view",
      "type": "function"
    },
    {
      "inputs": [
        {
          "internalType": "uint256",
          "name": "tokenId",
          "type": "uint256"
        }
      ],
      "name": "ownerOf",
      "outputs": [
        {
          "internalType": "address",
          "name": "",
          "type": "address"
        }
      ],
      "stateMutability": "view",
      "type": "function"
    },
    {
      "inputs": [],
      "name": "renounceOwnership",
      "outputs": [],
      "stateMutability": "nonpayable",
      "type": "function"
    },
    {
      "inputs": [
        {
          "internalType": "address",
          "name": "from",
          "type": "address"
        },
        {
          "internalType": "address",
          "name": "to",
          "type": "address"
        },
        {
          "internalType": "uint256",
          "name": "tokenId",
          "type": "uint256"
        }
      ],
      "name": "safeTransferFrom",
      "outputs": [],
      "stateMutability": "nonpayable",
      "type": "function"
    },
    {
      "inputs": [
        {
          "internalType": "address",
          "name": "from",
          "type": "address"
        },
        {
          "internalType": "address",
          "name": "to",
          "type": "address"
        },
        {
          "internalType": "uint256",
          "name": "tokenId",
          "type": "uint256"
        },
        {
          "internalType": "bytes",
          "name": "_data",
          "type": "bytes"
        }
      ],
      "name": "safeTransferFrom",
      "outputs": [],
      "stateMutability": "nonpayable",
      "type": "function"
    },
    {
      "inputs": [
        {
          "internalType": "address",
          "name": "operator",
          "type": "address"
        },
        {
          "internalType": "bool",
          "name": "approved",
          "type": "bool"
        }
      ],
      "name": "setApprovalForAll",
      "outputs": [],
      "stateMutability": "nonpayable",
      "type": "function"
    },
    {
      "inputs": [
        {
          "internalType": "string",
          "name": "baseURI",
          "type": "string"
        }
      ],
      "name": "setBaseURI",
      "outputs": [],
      "stateMutability": "nonpayable",
      "type": "function"
    },
    {
      "inputs": [
        {
          "internalType": "bytes4",
          "name": "interfaceId",
          "type": "bytes4"
        }
      ],
      "name": "supportsInterface",
      "outputs": [
        {
          "internalType": "bool",
          "name": "",
          "type": "bool"
        }
      ],
      "stateMutability": "view",
      "type": "function"
    },
    {
      "inputs": [],
      "name": "symbol",
      "outputs": [
        {
          "internalType": "string",
          "name": "",
          "type": "string"
        }
      ],
      "stateMutability": "view",
      "type": "function"
    },
    {
      "inputs": [
        {
          "internalType": "uint256",
          "name": "tokenId",
          "type": "uint256"
        }
      ],
      "name": "tokenURI",
      "outputs": [
        {
          "internalType": "string",
          "name": "",
          "type": "string"
        }
      ],
      "stateMutability": "view",
      "type": "function"
    },
    {
      "inputs": [],
      "name": "totalSupply",
      "outputs": [
        {
          "internalType": "uint256",
          "name": "",
          "type": "uint256"
        }
      ],
      "stateMutability": "view",
      "type": "function"
    },
    {
      "inputs": [
        {
          "internalType": "address",
          "name": "from",
          "type": "address"
        },
        {
          "internalType": "address",
          "name": "to",
          "type": "address"
        },
        {
          "internalType": "uint256",
          "name": "tokenId",
          "type": "uint256"
        }
      ],
      "name": "transferFrom",
      "outputs": [],
      "stateMutability": "nonpayable",
      "type": "function"
    },
    {
      "inputs": [
        {
          "internalType": "address",
          "name": "newOwner",
          "type": "address"
        }
      ],
      "name": "transferOwnership",
      "outputs": [],
      "stateMutability": "nonpayable",
      "type": "function"
    },
    {
      "inputs": [],
      "name": "withdraw",
      "outputs": [],
      "stateMutability": "nonpayable",
      "type": "function"
    }
  ],
  "bytecode": "60806040523480156200001157600080fd5b506040516200353e3803806200353e833981810160405281019062000037919062000307565b6040518060400160405280601081526020017f53696c686f75657474652050756e6b73000000000000000000000000000000008152506040518060400160405280600281526020017f53500000000000000000000000000000000000000000000000000000000000008152508160009080519060200190620000bb929190620001e5565b508060019080519060200190620000d4929190620001e5565b505050620000f7620000eb6200011760201b60201c565b6200011f60201b60201c565b80600790805190602001906200010f929190620001e5565b5050620004bc565b600033905090565b6000600660009054906101000a900473ffffffffffffffffffffffffffffffffffffffff16905081600660006101000a81548173ffffffffffffffffffffffffffffffffffffffff021916908373ffffffffffffffffffffffffffffffffffffffff1602179055508173ffffffffffffffffffffffffffffffffffffffff168173ffffffffffffffffffffffffffffffffffffffff167f8be0079c531659141344cd1fd0a4f28419497f9722a3daafe3b4186f6b6457e060405160405180910390a35050565b828054620001f390620003e1565b90600052602060002090601f01602090048101928262000217576000855562000263565b82601f106200023257805160ff191683800117855562000263565b8280016001018555821562000263579182015b828111156200026257825182559160200191906001019062000245565b5b50905062000272919062000276565b5090565b5b808211156200029157600081600090555060010162000277565b5090565b6000620002ac620002a68462000375565b6200034c565b905082815260208101848484011115620002c557600080fd5b620002d2848285620003ab565b509392505050565b600082601f830112620002ec57600080fd5b8151620002fe84826020860162000295565b91505092915050565b6000602082840312156200031a57600080fd5b600082015167ffffffffffffffff8111156200033557600080fd5b6200034384828501620002da565b91505092915050565b6000620003586200036b565b905062000366828262000417565b919050565b6000604051905090565b600067ffffffffffffffff8211156200039357620003926200047c565b5b6200039e82620004ab565b9050602081019050919050565b60005b83811015620003cb578082015181840152602081019050620003ae565b83811115620003db576000848401525b50505050565b60006002820490506001821680620003fa57607f821691505b602082108114156200041157620004106200044d565b5b50919050565b6200042282620004ab565b810181811067ffffffffffffffff821117156200044457620004436200047c565b5b80604052505050565b7f4e487b7100000000000000000000000000000000000000000000000000000000600052602260045260246000fd5b7f4e487b7100000000000000000000000000000000000000000000000000000000600052604160045260246000fd5b6000601f19601f8301169050919050565b61307280620004cc6000396000f3fe60806040526004361061011f5760003560e01c806370a08231116100a0578063a22cb46511610064578063a22cb465146103b2578063b88d4fde146103db578063c87b56dd14610404578063e985e9c514610441578063f2fde38b1461047e5761011f565b806370a08231146102ec578063715018a6146103295780638da5cb5b1461034057806395d89b411461036b578063a0712d68146103965761011f565b806323b872dd116100e757806323b872dd1461021d5780633ccfd60b1461024657806342842e0e1461025d57806355f804b3146102865780636352211e146102af5761011f565b806301ffc9a71461012457806306fdde0314610161578063081812fc1461018c578063095ea7b3146101c957806318160ddd146101f2575b600080fd5b34801561013057600080fd5b5061014b6004803603810190610146919061201f565b6104a7565b60405161015891906124b9565b60405180910390f35b34801561016d57600080fd5b50610176610589565b60405161018391906124d4565b60405180910390f35b34801561019857600080fd5b506101b360048036038101906101ae91906120b2565b61061b565b6040516101c09190612452565b60405180910390f35b3480156101d557600080fd5b506101f060048036038101906101eb9190611fe3565b6106a0565b005b3480156101fe57600080fd5b506102076107b8565b6040516102149190612736565b60405180910390f35b34801561022957600080fd5b50610244600480360381019061023f9190611edd565b6107be565b005b34801561025257600080fd5b5061025b61081e565b005b34801561026957600080fd5b50610284600480360381019061027f9190611edd565b61089c565b005b34801561029257600080fd5b506102ad60048036038101906102a89190612071565b6108bc565b005b3480156102bb57600080fd5b506102d660048036038101906102d191906120b2565b610952565b6040516102e39190612452565b60405180910390f35b3480156102f857600080fd5b50610313600480360381019061030e9190611e78565b610a04565b6040516103209190612736565b60405180910390f35b34801561033557600080fd5b5061033e610abc565b005b34801561034c57600080fd5b50610355610b44565b6040516103629190612452565b60405180910390f35b34801561037757600080fd5b50610380610b6e565b60405161038d91906124d4565b60405180910390f35b6103b060048036038101906103ab91906120b2565b610c00565b005b3480156103be57600080fd5b506103d960048036038101906103d49190611fa7565b610c9a565b005b3480156103e757600080fd5b5061040260048036038101906103fd9190611f2c565b610cb0565b005b34801561041057600080fd5b5061042b600480360381019061042691906120b2565b610d12565b60405161043891906124d4565b60405180910390f35b34801561044d57600080fd5b5061046860048036038101906104639190611ea1565b610df6565b60405161047591906124b9565b60405180910390f35b34801561048a57600080fd5b506104a560048036038101906104a09190611e78565b610e8a565b005b60007f80ac58cd000000000000000000000000000000000000000000000000000000007bffffffffffffffffffffffffffffffffffffffffffffffffffffffff1916827bffffffffffffffffffffffffffffffffffffffffffffffffffffffff1916148061057257507f5b5e139f000000000000000000000000000000000000000000000000000000007bffffffffffffffffffffffffffffffffffffffffffffffffffffffff1916827bffffffffffffffffffffffffffffffffffffffffffffffffffffffff1916145b80610582575061058182610f82565b5b9050919050565b6060600080546105989061298c565b80601f01602080910402602001604051908101604052809291908181526020018280546105c49061298c565b80156106115780601f106105e657610100808354040283529160200191610611565b820191906000526020600020905b8154815290600101906020018083116105f457829003601f168201915b5050505050905090565b600061062682610fec565b610665576040517f08c379a000000000000000000000000000000000000000000000000000000000815260040161065c90612676565b60405180910390fd5b6004600083815260200190815260200160002060009054906101000a900473ffffffffffffffffffffffffffffffffffffffff169050919050565b60006106ab82610952565b90508073ffffffffffffffffffffffffffffffffffffffff168373ffffffffffffffffffffffffffffffffffffffff16141561071c576040517f08c379a0000000000000000000000000000000000000000000000000000000008152600401610713906126f6565b60405180910390fd5b8073ffffffffffffffffffffffffffffffffffffffff1661073b611058565b73ffffffffffffffffffffffffffffffffffffffff16148061076a575061076981610764611058565b610df6565b5b6107a9576040517f08c379a00000000000000000000000000000000000000000000000000000000081526004016107a0906125f6565b60405180910390fd5b6107b38383611060565b505050565b60085481565b6107cf6107c9611058565b82611119565b61080e576040517f08c379a000000000000000000000000000000000000000000000000000000000815260040161080590612716565b60405180910390fd5b6108198383836111f7565b505050565b610826611058565b73ffffffffffffffffffffffffffffffffffffffff16610844610b44565b73ffffffffffffffffffffffffffffffffffffffff161461089a576040517f08c379a000000000000000000000000000000000000000000000000000000000815260040161089190612696565b60405180910390fd5b565b6108b783838360405180602001604052806000815250610cb0565b505050565b6108c4611058565b73ffffffffffffffffffffffffffffffffffffffff166108e2610b44565b73ffffffffffffffffffffffffffffffffffffffff1614610938576040517f08c379a000000000000000000000000000000000000000000000000000000000815260040161092f90612696565b60405180910390fd5b806007908051906020019061094e929190611c9c565b5050565b6000806002600084815260200190815260200160002060009054906101000a900473ffffffffffffffffffffffffffffffffffffffff169050600073ffffffffffffffffffffffffffffffffffffffff168173ffffffffffffffffffffffffffffffffffffffff1614156109fb576040517f08c379a00000000000000000000000000000000000000000000000000000000081526004016109f290612636565b60405180910390fd5b80915050919050565b60008073ffffffffffffffffffffffffffffffffffffffff168273ffffffffffffffffffffffffffffffffffffffff161415610a75576040517f08c379a0000000000000000000000000000000000000000000000000000000008152600401610a6c90612616565b60405180910390fd5b600360008373ffffffffffffffffffffffffffffffffffffffff1673ffffffffffffffffffffffffffffffffffffffff168152602001908152602001600020549050919050565b610ac4611058565b73ffffffffffffffffffffffffffffffffffffffff16610ae2610b44565b73ffffffffffffffffffffffffffffffffffffffff1614610b38576040517f08c379a0000000000000000000000000000000000000000000000000000000008152600401610b2f90612696565b60405180910390fd5b610b426000611453565b565b6000600660009054906101000a900473ffffffffffffffffffffffffffffffffffffffff16905090565b606060018054610b7d9061298c565b80601f0160208091040260200160405190810160405280929190818152602001828054610ba99061298c565b8015610bf65780601f10610bcb57610100808354040283529160200191610bf6565b820191906000526020600020905b815481529060010190602001808311610bd957829003601f168201915b5050505050905090565b66470de4df8200003414610c49576040517f08c379a0000000000000000000000000000000000000000000000000000000008152600401610c4090612576565b60405180910390fd5b6127108110610c8d576040517f08c379a0000000000000000000000000000000000000000000000000000000008152600401610c84906124f6565b60405180910390fd5b610c973382611519565b50565b610cac610ca5611058565b8383611537565b5050565b610cc1610cbb611058565b83611119565b610d00576040517f08c379a0000000000000000000000000000000000000000000000000000000008152600401610cf790612716565b60405180910390fd5b610d0c848484846116a4565b50505050565b6060610d1d82610fec565b610d5c576040517f08c379a0000000000000000000000000000000000000000000000000000000008152600401610d53906126d6565b60405180910390fd5b60006040518060400160405280600581526020017f2e6a736f6e00000000000000000000000000000000000000000000000000000081525090506000610da0611700565b90506000815111610dc05760405180602001604052806000815250610ded565b80610dca85611717565b83604051602001610ddd93929190612421565b6040516020818303038152906040525b92505050919050565b6000600560008473ffffffffffffffffffffffffffffffffffffffff1673ffffffffffffffffffffffffffffffffffffffff16815260200190815260200160002060008373ffffffffffffffffffffffffffffffffffffffff1673ffffffffffffffffffffffffffffffffffffffff16815260200190815260200160002060009054906101000a900460ff16905092915050565b610e92611058565b73ffffffffffffffffffffffffffffffffffffffff16610eb0610b44565b73ffffffffffffffffffffffffffffffffffffffff1614610f06576040517f08c379a0000000000000000000000000000000000000000000000000000000008152600401610efd90612696565b60405180910390fd5b600073ffffffffffffffffffffffffffffffffffffffff168173ffffffffffffffffffffffffffffffffffffffff161415610f76576040517f08c379a0000000000000000000000000000000000000000000000000000000008152600401610f6d90612536565b60405180910390fd5b610f7f81611453565b50565b60007f01ffc9a7000000000000000000000000000000000000000000000000000000007bffffffffffffffffffffffffffffffffffffffffffffffffffffffff1916827bffffffffffffffffffffffffffffffffffffffffffffffffffffffff1916149050919050565b60008073ffffffffffffffffffffffffffffffffffffffff166002600084815260200190815260200160002060009054906101000a900473ffffffffffffffffffffffffffffffffffffffff1673ffffffffffffffffffffffffffffffffffffffff1614159050919050565b600033905090565b816004600083815260200190815260200160002060006101000a81548173ffffffffffffffffffffffffffffffffffffffff021916908373ffffffffffffffffffffffffffffffffffffffff160217905550808273ffffffffffffffffffffffffffffffffffffffff166110d383610952565b73ffffffffffffffffffffffffffffffffffffffff167f8c5be1e5ebec7d5bd14f71427d1e84f3dd0314c0f7b2291e5b200ac8c7c3b92560405160405180910390a45050565b600061112482610fec565b611163576040517f08c379a000000000000000000000000000000000000000000000000000000000815260040161115a906125d6565b60405180910390fd5b600061116e83610952565b90508073ffffffffffffffffffffffffffffffffffffffff168473ffffffffffffffffffffffffffffffffffffffff1614806111dd57508373ffffffffffffffffffffffffffffffffffffffff166111c58461061b565b73ffffffffffffffffffffffffffffffffffffffff16145b806111ee57506111ed8185610df6565b5b91505092915050565b8273ffffffffffffffffffffffffffffffffffffffff1661121782610952565b73ffffffffffffffffffffffffffffffffffffffff161461126d576040517f08c379a0000000000000000000000000000000000000000000000000000000008152600401611264906126b6565b60405180910390fd5b600073ffffffffffffffffffffffffffffffffffffffff168273ffffffffffffffffffffffffffffffffffffffff1614156112dd576040517f08c379a00000000000000000000000000000000000000000000000000000000081526004016112d490612596565b60405180910390fd5b6112e88383836118c4565b6112f3600082611060565b6001600360008573ffffffffffffffffffffffffffffffffffffffff1673ffffffffffffffffffffffffffffffffffffffff168152602001908152602001600020600082825461134391906128a2565b925050819055506001600360008473ffffffffffffffffffffffffffffffffffffffff1673ffffffffffffffffffffffffffffffffffffffff168152602001908152602001600020600082825461139a919061281b565b92505081905550816002600083815260200190815260200160002060006101000a81548173ffffffffffffffffffffffffffffffffffffffff021916908373ffffffffffffffffffffffffffffffffffffffff160217905550808273ffffffffffffffffffffffffffffffffffffffff168473ffffffffffffffffffffffffffffffffffffffff167fddf252ad1be2c89b69c2b068fc378daa952ba7f163c4a11628f55a4df523b3ef60405160405180910390a4505050565b6000600660009054906101000a900473ffffffffffffffffffffffffffffffffffffffff16905081600660006101000a81548173ffffffffffffffffffffffffffffffffffffffff021916908373ffffffffffffffffffffffffffffffffffffffff1602179055508173ffffffffffffffffffffffffffffffffffffffff168173ffffffffffffffffffffffffffffffffffffffff167f8be0079c531659141344cd1fd0a4f28419497f9722a3daafe3b4186f6b6457e060405160405180910390a35050565b6115338282604051806020016040528060008152506118c9565b5050565b8173ffffffffffffffffffffffffffffffffffffffff168373ffffffffffffffffffffffffffffffffffffffff1614156115a6576040517f08c379a000000000000000000000000000000000000000000000000000000000815260040161159d906125b6565b60405180910390fd5b80600560008573ffffffffffffffffffffffffffffffffffffffff1673ffffffffffffffffffffffffffffffffffffffff16815260200190815260200160002060008473ffffffffffffffffffffffffffffffffffffffff1673ffffffffffffffffffffffffffffffffffffffff16815260200190815260200160002060006101000a81548160ff0219169083151502179055508173ffffffffffffffffffffffffffffffffffffffff168373ffffffffffffffffffffffffffffffffffffffff167f17307eab39ab6107e8899845ad3d59bd9653f200f220920489ca2b5937696c318360405161169791906124b9565b60405180910390a3505050565b6116af8484846111f7565b6116bb84848484611924565b6116fa576040517f08c379a00000000000000000000000000000000000000000000000000000000081526004016116f190612516565b60405180910390fd5b50505050565b606060405180602001604052806000815250905090565b6060600082141561175f576040518060400160405280600181526020017f300000000000000000000000000000000000000000000000000000000000000081525090506118bf565b600082905060005b6000821461179157808061177a906129ef565b915050600a8261178a9190612871565b9150611767565b60008167ffffffffffffffff8111156117d3577f4e487b7100000000000000000000000000000000000000000000000000000000600052604160045260246000fd5b6040519080825280601f01601f1916602001820160405280156118055781602001600182028036833780820191505090505b5090505b600085146118b85760018261181e91906128a2565b9150600a8561182d9190612a38565b6030611839919061281b565b60f81b818381518110611875577f4e487b7100000000000000000000000000000000000000000000000000000000600052603260045260246000fd5b60200101907effffffffffffffffffffffffffffffffffffffffffffffffffffffffffffff1916908160001a905350600a856118b19190612871565b9450611809565b8093505050505b919050565b505050565b6118d38383611abb565b6118e06000848484611924565b61191f576040517f08c379a000000000000000000000000000000000000000000000000000000000815260040161191690612516565b60405180910390fd5b505050565b60006119458473ffffffffffffffffffffffffffffffffffffffff16611c89565b15611aae578373ffffffffffffffffffffffffffffffffffffffff1663150b7a0261196e611058565b8786866040518563ffffffff1660e01b8152600401611990949392919061246d565b602060405180830381600087803b1580156119aa57600080fd5b505af19250505080156119db57506040513d601f19601f820116820180604052508101906119d89190612048565b60015b611a5e573d8060008114611a0b576040519150601f19603f3d011682016040523d82523d6000602084013e611a10565b606091505b50600081511415611a56576040517f08c379a0000000000000000000000000000000000000000000000000000000008152600401611a4d90612516565b60405180910390fd5b805181602001fd5b63150b7a0260e01b7bffffffffffffffffffffffffffffffffffffffffffffffffffffffff1916817bffffffffffffffffffffffffffffffffffffffffffffffffffffffff191614915050611ab3565b600190505b949350505050565b600073ffffffffffffffffffffffffffffffffffffffff168273ffffffffffffffffffffffffffffffffffffffff161415611b2b576040517f08c379a0000000000000000000000000000000000000000000000000000000008152600401611b2290612656565b60405180910390fd5b611b3481610fec565b15611b74576040517f08c379a0000000000000000000000000000000000000000000000000000000008152600401611b6b90612556565b60405180910390fd5b611b80600083836118c4565b6001600360008473ffffffffffffffffffffffffffffffffffffffff1673ffffffffffffffffffffffffffffffffffffffff1681526020019081526020016000206000828254611bd0919061281b565b92505081905550816002600083815260200190815260200160002060006101000a81548173ffffffffffffffffffffffffffffffffffffffff021916908373ffffffffffffffffffffffffffffffffffffffff160217905550808273ffffffffffffffffffffffffffffffffffffffff16600073ffffffffffffffffffffffffffffffffffffffff167fddf252ad1be2c89b69c2b068fc378daa952ba7f163c4a11628f55a4df523b3ef60405160405180910390a45050565b600080823b905060008111915050919050565b828054611ca89061298c565b90600052602060002090601f016020900481019282611cca5760008555611d11565b82601f10611ce357805160ff1916838001178555611d11565b82800160010185558215611d11579182015b82811115611d10578251825591602001919060010190611cf5565b5b509050611d1e9190611d22565b5090565b5b80821115611d3b576000816000905550600101611d23565b5090565b6000611d52611d4d84612776565b612751565b905082815260208101848484011115611d6a57600080fd5b611d7584828561294a565b509392505050565b6000611d90611d8b846127a7565b612751565b905082815260208101848484011115611da857600080fd5b611db384828561294a565b509392505050565b600081359050611dca81612fe0565b92915050565b600081359050611ddf81612ff7565b92915050565b600081359050611df48161300e565b92915050565b600081519050611e098161300e565b92915050565b600082601f830112611e2057600080fd5b8135611e30848260208601611d3f565b91505092915050565b600082601f830112611e4a57600080fd5b8135611e5a848260208601611d7d565b91505092915050565b600081359050611e7281613025565b92915050565b600060208284031215611e8a57600080fd5b6000611e9884828501611dbb565b91505092915050565b60008060408385031215611eb457600080fd5b6000611ec285828601611dbb565b9250506020611ed385828601611dbb565b9150509250929050565b600080600060608486031215611ef257600080fd5b6000611f0086828701611dbb565b9350506020611f1186828701611dbb565b9250506040611f2286828701611e63565b9150509250925092565b60008060008060808587031215611f4257600080fd5b6000611f5087828801611dbb565b9450506020611f6187828801611dbb565b9350506040611f7287828801611e63565b925050606085013567ffffffffffffffff811115611f8f57600080fd5b611f9b87828801611e0f565b91505092959194509250565b60008060408385031215611fba57600080fd5b6000611fc885828601611dbb565b9250506020611fd985828601611dd0565b9150509250929050565b60008060408385031215611ff657600080fd5b600061200485828601611dbb565b925050602061201585828601611e63565b9150509250929050565b60006020828403121561203157600080fd5b600061203f84828501611de5565b91505092915050565b60006020828403121561205a57600080fd5b600061206884828501611dfa565b91505092915050565b60006020828403121561208357600080fd5b600082013567ffffffffffffffff81111561209d57600080fd5b6120a984828501611e39565b91505092915050565b6000602082840312156120c457600080fd5b60006120d284828501611e63565b91505092915050565b6120e4816128d6565b82525050565b6120f3816128e8565b82525050565b6000612104826127d8565b61210e81856127ee565b935061211e818560208601612959565b61212781612b25565b840191505092915050565b600061213d826127e3565b61214781856127ff565b9350612157818560208601612959565b61216081612b25565b840191505092915050565b6000612176826127e3565b6121808185612810565b9350612190818560208601612959565b80840191505092915050565b60006121a96014836127ff565b91506121b482612b36565b602082019050919050565b60006121cc6032836127ff565b91506121d782612b5f565b604082019050919050565b60006121ef6026836127ff565b91506121fa82612bae565b604082019050919050565b6000612212601c836127ff565b915061221d82612bfd565b602082019050919050565b6000612235601f836127ff565b915061224082612c26565b602082019050919050565b60006122586024836127ff565b915061226382612c4f565b604082019050919050565b600061227b6019836127ff565b915061228682612c9e565b602082019050919050565b600061229e602c836127ff565b91506122a982612cc7565b604082019050919050565b60006122c16038836127ff565b91506122cc82612d16565b604082019050919050565b60006122e4602a836127ff565b91506122ef82612d65565b604082019050919050565b60006123076029836127ff565b915061231282612db4565b604082019050919050565b600061232a6020836127ff565b915061233582612e03565b602082019050919050565b600061234d602c836127ff565b915061235882612e2c565b604082019050919050565b60006123706020836127ff565b915061237b82612e7b565b602082019050919050565b60006123936029836127ff565b915061239e82612ea4565b604082019050919050565b60006123b6602f836127ff565b91506123c182612ef3565b604082019050919050565b60006123d96021836127ff565b91506123e482612f42565b604082019050919050565b60006123fc6031836127ff565b915061240782612f91565b604082019050919050565b61241b81612940565b82525050565b600061242d828661216b565b9150612439828561216b565b9150612445828461216b565b9150819050949350505050565b600060208201905061246760008301846120db565b92915050565b600060808201905061248260008301876120db565b61248f60208301866120db565b61249c6040830185612412565b81810360608301526124ae81846120f9565b905095945050505050565b60006020820190506124ce60008301846120ea565b92915050565b600060208201905081810360008301526124ee8184612132565b905092915050565b6000602082019050818103600083015261250f8161219c565b9050919050565b6000602082019050818103600083015261252f816121bf565b9050919050565b6000602082019050818103600083015261254f816121e2565b9050919050565b6000602082019050818103600083015261256f81612205565b9050919050565b6000602082019050818103600083015261258f81612228565b9050919050565b600060208201905081810360008301526125af8161224b565b9050919050565b600060208201905081810360008301526125cf8161226e565b9050919050565b600060208201905081810360008301526125ef81612291565b9050919050565b6000602082019050818103600083015261260f816122b4565b9050919050565b6000602082019050818103600083015261262f816122d7565b9050919050565b6000602082019050818103600083015261264f816122fa565b9050919050565b6000602082019050818103600083015261266f8161231d565b9050919050565b6000602082019050818103600083015261268f81612340565b9050919050565b600060208201905081810360008301526126af81612363565b9050919050565b600060208201905081810360008301526126cf81612386565b9050919050565b600060208201905081810360008301526126ef816123a9565b9050919050565b6000602082019050818103600083015261270f816123cc565b9050919050565b6000602082019050818103600083015261272f816123ef565b9050919050565b600060208201905061274b6000830184612412565b92915050565b600061275b61276c565b905061276782826129be565b919050565b6000604051905090565b600067ffffffffffffffff82111561279157612790612af6565b5b61279a82612b25565b9050602081019050919050565b600067ffffffffffffffff8211156127c2576127c1612af6565b5b6127cb82612b25565b9050602081019050919050565b600081519050919050565b600081519050919050565b600082825260208201905092915050565b600082825260208201905092915050565b600081905092915050565b600061282682612940565b915061283183612940565b9250827fffffffffffffffffffffffffffffffffffffffffffffffffffffffffffffffff0382111561286657612865612a69565b5b828201905092915050565b600061287c82612940565b915061288783612940565b92508261289757612896612a98565b5b828204905092915050565b60006128ad82612940565b91506128b883612940565b9250828210156128cb576128ca612a69565b5b828203905092915050565b60006128e182612920565b9050919050565b60008115159050919050565b60007fffffffff0000000000000000000000000000000000000000000000000000000082169050919050565b600073ffffffffffffffffffffffffffffffffffffffff82169050919050565b6000819050919050565b82818337600083830152505050565b60005b8381101561297757808201518184015260208101905061295c565b83811115612986576000848401525b50505050565b600060028204905060018216806129a457607f821691505b602082108114156129b8576129b7612ac7565b5b50919050565b6129c782612b25565b810181811067ffffffffffffffff821117156129e6576129e5612af6565b5b80604052505050565b60006129fa82612940565b91507fffffffffffffffffffffffffffffffffffffffffffffffffffffffffffffffff821415612a2d57612a2c612a69565b5b600182019050919050565b6000612a4382612940565b9150612a4e83612940565b925082612a5e57612a5d612a98565b5b828206905092915050565b7f4e487b7100000000000000000000000000000000000000000000000000000000600052601160045260246000fd5b7f4e487b7100000000000000000000000000000000000000000000000000000000600052601260045260246000fd5b7f4e487b7100000000000000000000000000000000000000000000000000000000600052602260045260246000fd5b7f4e487b7100000000000000000000000000000000000000000000000000000000600052604160045260246000fd5b6000601f19601f8301169050919050565b7f6578636565647320746f6b656e20737570706c79000000000000000000000000600082015250565b7f4552433732313a207472616e7366657220746f206e6f6e20455243373231526560008201527f63656976657220696d706c656d656e7465720000000000000000000000000000602082015250565b7f4f776e61626c653a206e6577206f776e657220697320746865207a65726f206160008201527f6464726573730000000000000000000000000000000000000000000000000000602082015250565b7f4552433732313a20746f6b656e20616c7265616479206d696e74656400000000600082015250565b7f696e636f727265637420657468657220616d6f756e7420737570706c69656400600082015250565b7f4552433732313a207472616e7366657220746f20746865207a65726f2061646460008201527f7265737300000000000000000000000000000000000000000000000000000000602082015250565b7f4552433732313a20617070726f766520746f2063616c6c657200000000000000600082015250565b7f4552433732313a206f70657261746f7220717565727920666f72206e6f6e657860008201527f697374656e7420746f6b656e0000000000000000000000000000000000000000602082015250565b7f4552433732313a20617070726f76652063616c6c6572206973206e6f74206f7760008201527f6e6572206e6f7220617070726f76656420666f7220616c6c0000000000000000602082015250565b7f4552433732313a2062616c616e636520717565727920666f7220746865207a6560008201527f726f206164647265737300000000000000000000000000000000000000000000602082015250565b7f4552433732313a206f776e657220717565727920666f72206e6f6e657869737460008201527f656e7420746f6b656e0000000000000000000000000000000000000000000000602082015250565b7f4552433732313a206d696e7420746f20746865207a65726f2061646472657373600082015250565b7f4552433732313a20617070726f76656420717565727920666f72206e6f6e657860008201527f697374656e7420746f6b656e0000000000000000000000000000000000000000602082015250565b7f4f776e61626c653a2063616c6c6572206973206e6f7420746865206f776e6572600082015250565b7f4552433732313a207472616e73666572206f6620746f6b656e2074686174206960008201527f73206e6f74206f776e0000000000000000000000000000000000000000000000602082015250565b7f4552433732314d657461646174613a2055524920717565727920666f72206e6f60008201527f6e6578697374656e7420746f6b656e0000000000000000000000000000000000602082015250565b7f4552433732313a20617070726f76616c20746f2063757272656e74206f776e6560008201527f7200000000000000000000000000000000000000000000000000000000000000602082015250565b7f4552433732313a207472616e736665722063616c6c6572206973206e6f74206f60008201527f776e6572206e6f7220617070726f766564000000000000000000000000000000602082015250565b612fe9816128d6565b8114612ff457600080fd5b50565b613000816128e8565b811461300b57600080fd5b50565b613017816128f4565b811461302257600080fd5b50565b61302e81612940565b811461303957600080fd5b5056fea2646970667358221220afdf6572cac1c0f85b960f171527f1fb959892cc66df080a78e51f30b99341b264736f6c6343000804003300000000000000000000000000000000000000000000000000000000000000200000000000000000000000000000000000000000000000000000000000000000",
  "linkReferences": {},
  "deployedLinkReferences": {}
}