{
  "_format": "hh-sol-artifact-1",
  "contractName": "SilhouettePunks",
  "sourceName": "contracts/SilhouettePunks.sol",
  "abi": [
    {
      "inputs": [
        {
          "internalType": "string",
          "name": "baseURI",
          "type": "string"
        }
      ],
      "stateMutability": "nonpayable",
      "type": "constructor"
    },
    {
      "anonymous": false,
      "inputs": [
        {
          "indexed": true,
          "internalType": "address",
          "name": "owner",
          "type": "address"
        },
        {
          "indexed": true,
          "internalType": "address",
          "name": "approved",
          "type": "address"
        },
        {
          "indexed": true,
          "internalType": "uint256",
          "name": "tokenId",
          "type": "uint256"
        }
      ],
      "name": "Approval",
      "type": "event"
    },
    {
      "anonymous": false,
      "inputs": [
        {
          "indexed": true,
          "internalType": "address",
          "name": "owner",
          "type": "address"
        },
        {
          "indexed": true,
          "internalType": "address",
          "name": "operator",
          "type": "address"
        },
        {
          "indexed": false,
          "internalType": "bool",
          "name": "approved",
          "type": "bool"
        }
      ],
      "name": "ApprovalForAll",
      "type": "event"
    },
    {
      "anonymous": false,
      "inputs": [
        {
          "indexed": true,
          "internalType": "address",
          "name": "previousOwner",
          "type": "address"
        },
        {
          "indexed": true,
          "internalType": "address",
          "name": "newOwner",
          "type": "address"
        }
      ],
      "name": "OwnershipTransferred",
      "type": "event"
    },
    {
      "anonymous": false,
      "inputs": [
        {
          "indexed": true,
          "internalType": "address",
          "name": "from",
          "type": "address"
        },
        {
          "indexed": true,
          "internalType": "address",
          "name": "to",
          "type": "address"
        },
        {
          "indexed": true,
          "internalType": "uint256",
          "name": "tokenId",
          "type": "uint256"
        }
      ],
      "name": "Transfer",
      "type": "event"
    },
    {
      "inputs": [],
      "name": "MAX_SUPPLY",
      "outputs": [
        {
          "internalType": "uint256",
          "name": "",
          "type": "uint256"
        }
      ],
      "stateMutability": "view",
      "type": "function"
    },
    {
      "inputs": [],
      "name": "PRICE",
      "outputs": [
        {
          "internalType": "uint256",
          "name": "",
          "type": "uint256"
        }
      ],
      "stateMutability": "view",
      "type": "function"
    },
    {
      "inputs": [
        {
          "internalType": "address",
          "name": "to",
          "type": "address"
        },
        {
          "internalType": "uint256",
          "name": "tokenId",
          "type": "uint256"
        }
      ],
      "name": "approve",
      "outputs": [],
      "stateMutability": "nonpayable",
      "type": "function"
    },
    {
      "inputs": [
        {
          "internalType": "address",
          "name": "owner",
          "type": "address"
        }
      ],
      "name": "balanceOf",
      "outputs": [
        {
          "internalType": "uint256",
          "name": "",
          "type": "uint256"
        }
      ],
      "stateMutability": "view",
      "type": "function"
    },
    {
      "inputs": [
        {
          "internalType": "uint256",
          "name": "tokenId",
          "type": "uint256"
        }
      ],
      "name": "getApproved",
      "outputs": [
        {
          "internalType": "address",
          "name": "",
          "type": "address"
        }
      ],
      "stateMutability": "view",
      "type": "function"
    },
    {
      "inputs": [
        {
          "internalType": "address",
          "name": "owner",
          "type": "address"
        },
        {
          "internalType": "address",
          "name": "operator",
          "type": "address"
        }
      ],
      "name": "isApprovedForAll",
      "outputs": [
        {
          "internalType": "bool",
          "name": "",
          "type": "bool"
        }
      ],
      "stateMutability": "view",
      "type": "function"
    },
    {
      "inputs": [
        {
          "internalType": "uint256",
          "name": "quantity",
          "type": "uint256"
        }
      ],
      "name": "mint",
      "outputs": [],
      "stateMutability": "payable",
      "type": "function"
    },
    {
      "inputs": [],
      "name": "name",
      "outputs": [
        {
          "internalType": "string",
          "name": "",
          "type": "string"
        }
      ],
      "stateMutability": "view",
      "type": "function"
    },
    {
      "inputs": [],
      "name": "owner",
      "outputs": [
        {
          "internalType": "address",
          "name": "",
          "type": "address"
        }
      ],
      "stateMutability": "view",
      "type": "function"
    },
    {
      "inputs": [
        {
          "internalType": "uint256",
          "name": "tokenId",
          "type": "uint256"
        }
      ],
      "name": "ownerOf",
      "outputs": [
        {
          "internalType": "address",
          "name": "",
          "type": "address"
        }
      ],
      "stateMutability": "view",
      "type": "function"
    },
    {
      "inputs": [],
      "name": "renounceOwnership",
      "outputs": [],
      "stateMutability": "nonpayable",
      "type": "function"
    },
    {
      "inputs": [
        {
          "internalType": "address",
          "name": "from",
          "type": "address"
        },
        {
          "internalType": "address",
          "name": "to",
          "type": "address"
        },
        {
          "internalType": "uint256",
          "name": "tokenId",
          "type": "uint256"
        }
      ],
      "name": "safeTransferFrom",
      "outputs": [],
      "stateMutability": "nonpayable",
      "type": "function"
    },
    {
      "inputs": [
        {
          "internalType": "address",
          "name": "from",
          "type": "address"
        },
        {
          "internalType": "address",
          "name": "to",
          "type": "address"
        },
        {
          "internalType": "uint256",
          "name": "tokenId",
          "type": "uint256"
        },
        {
          "internalType": "bytes",
          "name": "_data",
          "type": "bytes"
        }
      ],
      "name": "safeTransferFrom",
      "outputs": [],
      "stateMutability": "nonpayable",
      "type": "function"
    },
    {
      "inputs": [
        {
          "internalType": "address",
          "name": "operator",
          "type": "address"
        },
        {
          "internalType": "bool",
          "name": "approved",
          "type": "bool"
        }
      ],
      "name": "setApprovalForAll",
      "outputs": [],
      "stateMutability": "nonpayable",
      "type": "function"
    },
    {
      "inputs": [
        {
          "internalType": "string",
          "name": "baseURI",
          "type": "string"
        }
      ],
      "name": "setBaseURI",
      "outputs": [],
      "stateMutability": "nonpayable",
      "type": "function"
    },
    {
      "inputs": [
        {
          "internalType": "bytes4",
          "name": "interfaceId",
          "type": "bytes4"
        }
      ],
      "name": "supportsInterface",
      "outputs": [
        {
          "internalType": "bool",
          "name": "",
          "type": "bool"
        }
      ],
      "stateMutability": "view",
      "type": "function"
    },
    {
      "inputs": [],
      "name": "symbol",
      "outputs": [
        {
          "internalType": "string",
          "name": "",
          "type": "string"
        }
      ],
      "stateMutability": "view",
      "type": "function"
    },
    {
      "inputs": [
        {
          "internalType": "uint256",
          "name": "tokenId",
          "type": "uint256"
        }
      ],
      "name": "tokenURI",
      "outputs": [
        {
          "internalType": "string",
          "name": "",
          "type": "string"
        }
      ],
      "stateMutability": "view",
      "type": "function"
    },
    {
      "inputs": [
        {
          "internalType": "address",
          "name": "from",
          "type": "address"
        },
        {
          "internalType": "address",
          "name": "to",
          "type": "address"
        },
        {
          "internalType": "uint256",
          "name": "tokenId",
          "type": "uint256"
        }
      ],
      "name": "transferFrom",
      "outputs": [],
      "stateMutability": "nonpayable",
      "type": "function"
    },
    {
      "inputs": [
        {
          "internalType": "address",
          "name": "newOwner",
          "type": "address"
        }
      ],
      "name": "transferOwnership",
      "outputs": [],
      "stateMutability": "nonpayable",
      "type": "function"
    },
    {
      "inputs": [],
      "name": "withdraw",
      "outputs": [],
      "stateMutability": "nonpayable",
      "type": "function"
    }
  ],
  "bytecode": "0x60806040523480156200001157600080fd5b5060405162002242380380620022428339810160408190526200003491620001d2565b604080518082018252601081526f53696c686f75657474652050756e6b7360801b602080830191825283518085019094526002845261053560f41b90840152815191929162000086916000916200012c565b5080516200009c9060019060208401906200012c565b505050620000b9620000b3620000d660201b60201c565b620000da565b8051620000ce9060079060208401906200012c565b5050620002fb565b3390565b600680546001600160a01b038381166001600160a01b0319831681179093556040519116919082907f8be0079c531659141344cd1fd0a4f28419497f9722a3daafe3b4186f6b6457e090600090a35050565b8280546200013a90620002a8565b90600052602060002090601f0160209004810192826200015e5760008555620001a9565b82601f106200017957805160ff1916838001178555620001a9565b82800160010185558215620001a9579182015b82811115620001a95782518255916020019190600101906200018c565b50620001b7929150620001bb565b5090565b5b80821115620001b75760008155600101620001bc565b60006020808385031215620001e5578182fd5b82516001600160401b0380821115620001fc578384fd5b818501915085601f83011262000210578384fd5b815181811115620002255762000225620002e5565b604051601f8201601f19908116603f01168101908382118183101715620002505762000250620002e5565b81604052828152888684870101111562000268578687fd5b8693505b828410156200028b57848401860151818501870152928501926200026c565b828411156200029c57868684830101525b98975050505050505050565b600181811c90821680620002bd57607f821691505b60208210811415620002df57634e487b7160e01b600052602260045260246000fd5b50919050565b634e487b7160e01b600052604160045260246000fd5b611f37806200030b6000396000f3fe60806040526004361061016a5760003560e01c806370a08231116100cb578063a0712d681161007f578063c87b56dd11610059578063c87b56dd146103af578063e985e9c5146103cf578063f2fde38b1461041857600080fd5b8063a0712d681461035c578063a22cb4651461036f578063b88d4fde1461038f57600080fd5b80638d859f3e116100b05780638d859f3e1461030e5780638da5cb5b1461032957806395d89b411461034757600080fd5b806370a08231146102d9578063715018a6146102f957600080fd5b806332cb6b0c1161012257806342842e0e1161010757806342842e0e1461027957806355f804b3146102995780636352211e146102b957600080fd5b806332cb6b0c146102405780633ccfd60b1461026457600080fd5b8063081812fc11610153578063081812fc146101c6578063095ea7b3146101fe57806323b872dd1461022057600080fd5b806301ffc9a71461016f57806306fdde03146101a4575b600080fd5b34801561017b57600080fd5b5061018f61018a366004611c5d565b610438565b60405190151581526020015b60405180910390f35b3480156101b057600080fd5b506101b96104d5565b60405161019b9190611d9e565b3480156101d257600080fd5b506101e66101e1366004611cdb565b610567565b6040516001600160a01b03909116815260200161019b565b34801561020a57600080fd5b5061021e610219366004611c34565b610601565b005b34801561022c57600080fd5b5061021e61023b366004611b46565b610733565b34801561024c57600080fd5b5061025661271081565b60405190815260200161019b565b34801561027057600080fd5b5061021e6107ba565b34801561028557600080fd5b5061021e610294366004611b46565b610a75565b3480156102a557600080fd5b5061021e6102b4366004611c95565b610a90565b3480156102c557600080fd5b506101e66102d4366004611cdb565b610b01565b3480156102e557600080fd5b506102566102f4366004611af3565b610b8c565b34801561030557600080fd5b5061021e610c26565b34801561031a57600080fd5b50610256662386f26fc1000081565b34801561033557600080fd5b506006546001600160a01b03166101e6565b34801561035357600080fd5b506101b9610c8c565b61021e61036a366004611cdb565b610c9b565b34801561037b57600080fd5b5061021e61038a366004611bfa565b610d9f565b34801561039b57600080fd5b5061021e6103aa366004611b81565b610daa565b3480156103bb57600080fd5b506101b96103ca366004611cdb565b610e38565b3480156103db57600080fd5b5061018f6103ea366004611b14565b6001600160a01b03918216600090815260056020908152604080832093909416825291909152205460ff1690565b34801561042457600080fd5b5061021e610433366004611af3565b610f65565b60006001600160e01b031982167f80ac58cd00000000000000000000000000000000000000000000000000000000148061049b57506001600160e01b031982167f5b5e139f00000000000000000000000000000000000000000000000000000000145b806104cf57507f01ffc9a7000000000000000000000000000000000000000000000000000000006001600160e01b03198316145b92915050565b6060600080546104e490611e3f565b80601f016020809104026020016040519081016040528092919081815260200182805461051090611e3f565b801561055d5780601f106105325761010080835404028352916020019161055d565b820191906000526020600020905b81548152906001019060200180831161054057829003601f168201915b5050505050905090565b6000818152600260205260408120546001600160a01b03166105e55760405162461bcd60e51b815260206004820152602c60248201527f4552433732313a20617070726f76656420717565727920666f72206e6f6e657860448201526b34b9ba32b73a103a37b5b2b760a11b60648201526084015b60405180910390fd5b506000908152600460205260409020546001600160a01b031690565b600061060c82610b01565b9050806001600160a01b0316836001600160a01b031614156106965760405162461bcd60e51b815260206004820152602160248201527f4552433732313a20617070726f76616c20746f2063757272656e74206f776e6560448201527f720000000000000000000000000000000000000000000000000000000000000060648201526084016105dc565b336001600160a01b03821614806106b257506106b281336103ea565b6107245760405162461bcd60e51b815260206004820152603860248201527f4552433732313a20617070726f76652063616c6c6572206973206e6f74206f7760448201527f6e6572206e6f7220617070726f76656420666f7220616c6c000000000000000060648201526084016105dc565b61072e8383611047565b505050565b61073d33826110c2565b6107af5760405162461bcd60e51b815260206004820152603160248201527f4552433732313a207472616e736665722063616c6c6572206973206e6f74206f60448201527f776e6572206e6f7220617070726f76656400000000000000000000000000000060648201526084016105dc565b61072e8383836111b5565b6006546001600160a01b031633146108145760405162461bcd60e51b815260206004820181905260248201527f4f776e61626c653a2063616c6c6572206973206e6f7420746865206f776e657260448201526064016105dc565b478061081f57600080fd5b600073a7ee780b4136e70e3ac1590cadcaad05764563fe600a610843846002611ddd565b61084d9190611dc9565b604051600081818185875af1925050503d8060008114610889576040519150601f19603f3d011682016040523d82523d6000602084013e61088e565b606091505b5090915060009050737eb696df980734dd592ebdd9dfc39f189adc5456600a6108b8856002611ddd565b6108c29190611dc9565b604051600081818185875af1925050503d80600081146108fe576040519150601f19603f3d011682016040523d82523d6000602084013e610903565b606091505b509091506000905073c7e7747fa605633817c706377559e5f340a5276e606461092d866005611ddd565b6109379190611dc9565b604051600081818185875af1925050503d8060008114610973576040519150601f19603f3d011682016040523d82523d6000602084013e610978565b606091505b5090915060009050735c6204674be94c377bbed9a42367611759dadd9060646109a2876005611ddd565b6109ac9190611dc9565b604051600081818185875af1925050503d80600081146109e8576040519150601f19603f3d011682016040523d82523d6000602084013e6109ed565b606091505b50909150506001841515148015610a0657506001831515145b8015610a1457506001821515145b8015610a2257506001811515145b610a6e5760405162461bcd60e51b815260206004820152600f60248201527f7769746864726177206661696c6564000000000000000000000000000000000060448201526064016105dc565b5050505050565b61072e83838360405180602001604052806000815250610daa565b6006546001600160a01b03163314610aea5760405162461bcd60e51b815260206004820181905260248201527f4f776e61626c653a2063616c6c6572206973206e6f7420746865206f776e657260448201526064016105dc565b8051610afd9060079060208401906119c8565b5050565b6000818152600260205260408120546001600160a01b0316806104cf5760405162461bcd60e51b815260206004820152602960248201527f4552433732313a206f776e657220717565727920666f72206e6f6e657869737460448201527f656e7420746f6b656e000000000000000000000000000000000000000000000060648201526084016105dc565b60006001600160a01b038216610c0a5760405162461bcd60e51b815260206004820152602a60248201527f4552433732313a2062616c616e636520717565727920666f7220746865207a6560448201527f726f20616464726573730000000000000000000000000000000000000000000060648201526084016105dc565b506001600160a01b031660009081526003602052604090205490565b6006546001600160a01b03163314610c805760405162461bcd60e51b815260206004820181905260248201527f4f776e61626c653a2063616c6c6572206973206e6f7420746865206f776e657260448201526064016105dc565b610c8a600061138f565b565b6060600180546104e490611e3f565b610cac81662386f26fc10000611ddd565b3414610cfa5760405162461bcd60e51b815260206004820152601f60248201527f696e636f727265637420657468657220616d6f756e7420737570706c6965640060448201526064016105dc565b6000610d0560085490565b9050612710610d148383611db1565b10610d615760405162461bcd60e51b815260206004820152601460248201527f6578636565647320746f6b656e20737570706c7900000000000000000000000060448201526064016105dc565b60005b8281101561072e57610d7f33610d7a8385611db1565b6113ee565b610d8d600880546001019055565b80610d9781611e7a565b915050610d64565b610afd338383611408565b610db433836110c2565b610e265760405162461bcd60e51b815260206004820152603160248201527f4552433732313a207472616e736665722063616c6c6572206973206e6f74206f60448201527f776e6572206e6f7220617070726f76656400000000000000000000000000000060648201526084016105dc565b610e32848484846114d7565b50505050565b6000818152600260205260409020546060906001600160a01b0316610ec55760405162461bcd60e51b815260206004820152602f60248201527f4552433732314d657461646174613a2055524920717565727920666f72206e6f60448201527f6e6578697374656e7420746f6b656e000000000000000000000000000000000060648201526084016105dc565b60408051808201909152600581527f2e6a736f6e00000000000000000000000000000000000000000000000000000060208201526000610f1060408051602081019091526000815290565b90506000815111610f305760405180602001604052806000815250610f5d565b80610f3a85611555565b83604051602001610f4d93929190611d1f565b6040516020818303038152906040525b949350505050565b6006546001600160a01b03163314610fbf5760405162461bcd60e51b815260206004820181905260248201527f4f776e61626c653a2063616c6c6572206973206e6f7420746865206f776e657260448201526064016105dc565b6001600160a01b03811661103b5760405162461bcd60e51b815260206004820152602660248201527f4f776e61626c653a206e6577206f776e657220697320746865207a65726f206160448201527f646472657373000000000000000000000000000000000000000000000000000060648201526084016105dc565b6110448161138f565b50565b6000818152600460205260409020805473ffffffffffffffffffffffffffffffffffffffff19166001600160a01b038416908117909155819061108982610b01565b6001600160a01b03167f8c5be1e5ebec7d5bd14f71427d1e84f3dd0314c0f7b2291e5b200ac8c7c3b92560405160405180910390a45050565b6000818152600260205260408120546001600160a01b031661113b5760405162461bcd60e51b815260206004820152602c60248201527f4552433732313a206f70657261746f7220717565727920666f72206e6f6e657860448201526b34b9ba32b73a103a37b5b2b760a11b60648201526084016105dc565b600061114683610b01565b9050806001600160a01b0316846001600160a01b031614806111815750836001600160a01b031661117684610567565b6001600160a01b0316145b80610f5d57506001600160a01b0380821660009081526005602090815260408083209388168352929052205460ff16610f5d565b826001600160a01b03166111c882610b01565b6001600160a01b0316146112445760405162461bcd60e51b815260206004820152602960248201527f4552433732313a207472616e73666572206f6620746f6b656e2074686174206960448201527f73206e6f74206f776e000000000000000000000000000000000000000000000060648201526084016105dc565b6001600160a01b0382166112bf5760405162461bcd60e51b8152602060048201526024808201527f4552433732313a207472616e7366657220746f20746865207a65726f2061646460448201527f726573730000000000000000000000000000000000000000000000000000000060648201526084016105dc565b6112ca600082611047565b6001600160a01b03831660009081526003602052604081208054600192906112f3908490611dfc565b90915550506001600160a01b0382166000908152600360205260408120805460019290611321908490611db1565b9091555050600081815260026020526040808220805473ffffffffffffffffffffffffffffffffffffffff19166001600160a01b0386811691821790925591518493918716917fddf252ad1be2c89b69c2b068fc378daa952ba7f163c4a11628f55a4df523b3ef91a4505050565b600680546001600160a01b0383811673ffffffffffffffffffffffffffffffffffffffff19831681179093556040519116919082907f8be0079c531659141344cd1fd0a4f28419497f9722a3daafe3b4186f6b6457e090600090a35050565b610afd8282604051806020016040528060008152506116a3565b816001600160a01b0316836001600160a01b0316141561146a5760405162461bcd60e51b815260206004820152601960248201527f4552433732313a20617070726f766520746f2063616c6c65720000000000000060448201526064016105dc565b6001600160a01b03838116600081815260056020908152604080832094871680845294825291829020805460ff191686151590811790915591519182527f17307eab39ab6107e8899845ad3d59bd9653f200f220920489ca2b5937696c31910160405180910390a3505050565b6114e28484846111b5565b6114ee84848484611721565b610e325760405162461bcd60e51b815260206004820152603260248201527f4552433732313a207472616e7366657220746f206e6f6e20455243373231526560448201527131b2b4bb32b91034b6b83632b6b2b73a32b960711b60648201526084016105dc565b60608161159557505060408051808201909152600181527f3000000000000000000000000000000000000000000000000000000000000000602082015290565b8160005b81156115bf57806115a981611e7a565b91506115b89050600a83611dc9565b9150611599565b60008167ffffffffffffffff8111156115e857634e487b7160e01b600052604160045260246000fd5b6040519080825280601f01601f191660200182016040528015611612576020820181803683370190505b5090505b8415610f5d57611627600183611dfc565b9150611634600a86611e95565b61163f906030611db1565b60f81b81838151811061166257634e487b7160e01b600052603260045260246000fd5b60200101907effffffffffffffffffffffffffffffffffffffffffffffffffffffffffffff1916908160001a90535061169c600a86611dc9565b9450611616565b6116ad8383611879565b6116ba6000848484611721565b61072e5760405162461bcd60e51b815260206004820152603260248201527f4552433732313a207472616e7366657220746f206e6f6e20455243373231526560448201527131b2b4bb32b91034b6b83632b6b2b73a32b960711b60648201526084016105dc565b60006001600160a01b0384163b1561186e57604051630a85bd0160e11b81526001600160a01b0385169063150b7a0290611765903390899088908890600401611d62565b602060405180830381600087803b15801561177f57600080fd5b505af19250505080156117af575060408051601f3d908101601f191682019092526117ac91810190611c79565b60015b611854573d8080156117dd576040519150601f19603f3d011682016040523d82523d6000602084013e6117e2565b606091505b50805161184c5760405162461bcd60e51b815260206004820152603260248201527f4552433732313a207472616e7366657220746f206e6f6e20455243373231526560448201527131b2b4bb32b91034b6b83632b6b2b73a32b960711b60648201526084016105dc565b805181602001fd5b6001600160e01b031916630a85bd0160e11b149050610f5d565b506001949350505050565b6001600160a01b0382166118cf5760405162461bcd60e51b815260206004820181905260248201527f4552433732313a206d696e7420746f20746865207a65726f206164647265737360448201526064016105dc565b6000818152600260205260409020546001600160a01b0316156119345760405162461bcd60e51b815260206004820152601c60248201527f4552433732313a20746f6b656e20616c7265616479206d696e7465640000000060448201526064016105dc565b6001600160a01b038216600090815260036020526040812080546001929061195d908490611db1565b9091555050600081815260026020526040808220805473ffffffffffffffffffffffffffffffffffffffff19166001600160a01b03861690811790915590518392907fddf252ad1be2c89b69c2b068fc378daa952ba7f163c4a11628f55a4df523b3ef908290a45050565b8280546119d490611e3f565b90600052602060002090601f0160209004810192826119f65760008555611a3c565b82601f10611a0f57805160ff1916838001178555611a3c565b82800160010185558215611a3c579182015b82811115611a3c578251825591602001919060010190611a21565b50611a48929150611a4c565b5090565b5b80821115611a485760008155600101611a4d565b600067ffffffffffffffff80841115611a7c57611a7c611ed5565b604051601f8501601f19908116603f01168101908282118183101715611aa457611aa4611ed5565b81604052809350858152868686011115611abd57600080fd5b858560208301376000602087830101525050509392505050565b80356001600160a01b0381168114611aee57600080fd5b919050565b600060208284031215611b04578081fd5b611b0d82611ad7565b9392505050565b60008060408385031215611b26578081fd5b611b2f83611ad7565b9150611b3d60208401611ad7565b90509250929050565b600080600060608486031215611b5a578081fd5b611b6384611ad7565b9250611b7160208501611ad7565b9150604084013590509250925092565b60008060008060808587031215611b96578081fd5b611b9f85611ad7565b9350611bad60208601611ad7565b925060408501359150606085013567ffffffffffffffff811115611bcf578182fd5b8501601f81018713611bdf578182fd5b611bee87823560208401611a61565b91505092959194509250565b60008060408385031215611c0c578182fd5b611c1583611ad7565b915060208301358015158114611c29578182fd5b809150509250929050565b60008060408385031215611c46578182fd5b611c4f83611ad7565b946020939093013593505050565b600060208284031215611c6e578081fd5b8135611b0d81611eeb565b600060208284031215611c8a578081fd5b8151611b0d81611eeb565b600060208284031215611ca6578081fd5b813567ffffffffffffffff811115611cbc578182fd5b8201601f81018413611ccc578182fd5b610f5d84823560208401611a61565b600060208284031215611cec578081fd5b5035919050565b60008151808452611d0b816020860160208601611e13565b601f01601f19169290920160200192915050565b60008451611d31818460208901611e13565b845190830190611d45818360208901611e13565b8451910190611d58818360208801611e13565b0195945050505050565b60006001600160a01b03808716835280861660208401525083604083015260806060830152611d946080830184611cf3565b9695505050505050565b602081526000611b0d6020830184611cf3565b60008219821115611dc457611dc4611ea9565b500190565b600082611dd857611dd8611ebf565b500490565b6000816000190483118215151615611df757611df7611ea9565b500290565b600082821015611e0e57611e0e611ea9565b500390565b60005b83811015611e2e578181015183820152602001611e16565b83811115610e325750506000910152565b600181811c90821680611e5357607f821691505b60208210811415611e7457634e487b7160e01b600052602260045260246000fd5b50919050565b6000600019821415611e8e57611e8e611ea9565b5060010190565b600082611ea457611ea4611ebf565b500690565b634e487b7160e01b600052601160045260246000fd5b634e487b7160e01b600052601260045260246000fd5b634e487b7160e01b600052604160045260246000fd5b6001600160e01b03198116811461104457600080fdfea2646970667358221220b018a7320035fa2b90b6c82a609071887139fc8b57aa21317c37b9a8306b475264736f6c63430008040033",
  "linkReferences": {},
  "deployedLinkReferences": {}
}